:100000000EC028C027C026C025C024C023C022C0DF
:1000100021C020C01FC01EC01DC01CC01BC0112499
:100020001FBECFE5D2E0DEBFCDBF11E0A0E6B0E05D
:10003000E6E2FBE002C005900D92A636B107D9F7C3
:1000400021E0A6E6B1E001C01D92AC3EB207E1F7A7
:100050001DD567C5D5CF86B38A7390E0089528E093
:1000600030E094E045E018BA87FF06C048BB880F2F
:1000700021503109C1F7089598BBF9CFCF93DF9391
:100080009C01DB01449700F56C307105E8F4EB014D
:10009000D595C795C90166E070E00BD5FC01EC5819
:1000A000FE4FEC0FFD1F9081A0FF11C04295407FD5
:1000B0009F70492BC90166E070E0FBD4FC01EC584D
:1000C000FE4FEC0FFD1F4083DF91CF910895907F8D
:1000D000F0CF9B018431910598F46C30710580F468
:1000E000DB01B595A79566E070E0E3D4FC01EC5820
:1000F000FE4FEA0FFB1F808120FD82958F700895CF
:100100008FEF0895982F9295907F892BE4E7F1E087
:100110002CEE31E080838183828383838483858393
:1001200036962E173F07B1F708957F928F929F92D0
:10013000AF92BF92CF92DF92EF92FF920F931F93F5
:10014000CF93DF937C01962E872E5A016901D0E070
:10015000C0E010E000E026C0692D782DC801B9DFAD
:10016000782E692D782DC8010196B3DFE72DF0E0D8
:10017000EE0FFF1FEE0FFF1FEA0DFB1DEC0FFD1F23
:1001800090819295907FE82FF0E0EE0FFF1FEE0F29
:10019000FF1FEA0DFB1DEC0FFD1F8081892B5FDF28
:1001A0000E5F1F4F0E151F05BCF2870104311105AC
:1001B00094F02196C430D10561F6DF91CF911F9163
:1001C0000F91FF90EF90DF90CF90BF90AF909F90F6
:1001D0008F907F900895692D782DC8017ADF782E51
:1001E000692D782DC801019674DFE72DF0E0EE0F40
:1001F000FF1FEE0FFF1FEC0DFD1DEC0FFD1F90818B
:100200009295907FE82FF0E0EE0FFF1FEE0FFF1F9B
:10021000EC0DFD1DEC0FFD1F8081892B20DF0E5F93
:100220001F4FC4CF9F92AF92BF92CF92DF92EF92B7
:10023000FF920F931F93CF93DF93EC016B017A0131
:10024000CC15DD0564F0DF91CF911F910F91FF90E8
:10025000EF90DF90CF90BF90AF909F900895B12C1A
:10026000A12C10E000E0BE01C80133DF982EBE01D2
:10027000C80101962EDFE92DF0E0EE0FFF1FEE0F13
:10028000FF1FEE0DFF1DEA0DFB1D90819295907FE3
:10029000E82FF0E0EE0FFF1FEE0FFF1FEE0DFF1D2A
:1002A000EA0DFB1D8081892BDADE0E5F1F4F0431C2
:1002B0001105C9F68FEFA81AB80A84E0A816B10490
:1002C00081F62196BDCFAC016CE070E090E080E05B
:1002D000A9CFDB01AA0FBB1FAA0FBB1FAA58BF4F94
:1002E000FC0104962D912193E817F907D9F7089599
:1002F000CF92DF92EF92FF920F931F93CF93DF93F2
:1003000000D000D0CDB7DEB7FC019C012C5F3F4F81
:10031000CE010196BF01DB014D91BD01DC014D9382
:10032000CD01AB0141505109DA011C9262177307EC
:1003300091F750E040E008E010E0EE24E394F12C67
:10034000B801042E02C0759567950A94E2F7DE01A4
:10035000119630E020E08D9190E086239723892B41
:1003600049F080816701022E01C0CC0C0A94EAF7A3
:100370008C2980832F5F3F4F2430310561F74F5F19
:100380005F4F319644305105D9F60F900F900F9082
:100390000F90DF91CF911F910F91FF90EF90DF9021
:1003A000CF9008954F925F926F927F928F929F921B
:1003B000AF92BF92CF92DF92EF92FF920F931F9373
:1003C000CF93DF93EA012B0121E0421A51086C011F
:1003D0005A0184E0A80EB11C912C812CF601619089
:1003E0006F01712C720110E000E09301002E02C039
:1003F000359527950A94E2F7C9018170992720FF66
:1004000029C0C130D105A1F0CB30D105A4F0DF91D6
:10041000CF911F910F91FF90EF90DF90CF90BF9001
:10042000AF909F908F907F906F905F904F900895C6
:1004300088248394912CC70101970A97D8F4CB3074
:10044000D10540F4BE01C70144DE882319F0C40180
:100450000196DDCFEFEFEE1AFE0A0F5F1F4F04305B
:10046000110519F62196AC16BD0609F0B7CF90E03C
:1004700080E0CDCF83E090E0CACF0F931F93CF935E
:10048000DF93182F092FC1E0D0E0612F702FCE012C
:1004900020DE882351F02196CB30D105B1F781E0E1
:1004A000DF91CF911F910F91089580E0F9CFEF92E6
:1004B000FF920F931F93CF93DF937C01C1E0D0E0B5
:1004C00087010150110917FF10C040E070E060E0A3
:1004D000CE01D4DD2196CB30D10591F7DF91CF91BC
:1004E0001F910F91FF90EF900895B801CE01F1DDBB
:1004F000482FB8016F5F7F4FCE01C0DDE2CF833060
:100500009105D9F034F48130910531F0029771F002
:1005100008950497C9F0089580916601909167014C
:100520000A96909367018093660108958091660111
:10053000909167018C599F4FF4CF80916601909103
:100540006701845D9E4FEDCF8091660190916701B8
:1005500080559B4FE6CF0F931F93CF93DF93CAE055
:10056000D0E010E000E0CE0188DF882329F0CE0142
:100570009EDF21960F5F1F4F2197A8F7C801BFDFAD
:100580008091680190916901080F191F109369010A
:1005900000936801DF91CF911F910F9108959F9271
:1005A000AF92BF92CF92DF92EF92FF920F931F9381
:1005B000CF93DF93922E8B0101501109EA015A016A
:1005C00024E0A20EB11C6C0121E0C21AD10817FD73
:1005D00019C0F12CE12CC6018E0D9F1D488150E001
:1005E0000E2C02C0559547950A94E2F740FF03C0D0
:1005F000492DB80143DD8FEFE81AF80A24E0E2162E
:10060000F10449F70F5F1F4F2196AC16BD06F9F6AE
:10061000DF91CF911F910F91FF90EF90DF90CF90DE
:10062000BF90AF909F900895CF93DF9380E06ADDF5
:10063000D0E0C0E045E06BE070E0CE011FDD219628
:10064000CB30D105B9F7CFEFDFEF46E0BE0190E048
:1006500080E014DD46E0BE018BE090E00FDD2196E6
:10066000CB30D10591F7809179018F7080678093AD
:1006700079018091BB018F7080688093BB01DF910D
:10068000CF910895FF920F931F93CF93DF93F82E8E
:1006900001E010E0D0E0C0E04F2DBE01C801EEDC6B
:1006A0002196CB30D105C1F70F5F1F4F0B301105DD
:1006B00089F7DF91CF911F910F91FF900895EF92ED
:1006C000FF920F931F93CF93DF93EC01F62EE72E4B
:1006D0008A01F80141918F01411107C0DF91CF914B
:1006E0001F910F91FF90EF9008956F2D7E2DCE01F9
:1006F000C5DC2196EECF8F929F92AF92BF92CF92A0
:10070000DF92EF92FF920F931F93CF93DF93EC0151
:100710004B01152F6C0184E0C80ED11C88EEE82E29
:1007200083E0F82E9AE0A92EB12C842F912FB701E7
:10073000D1D18C0141E0460FB401CE019FDC402FA6
:10074000C701B501C7D17B012196CC16DD0669F73B
:10075000DF91CF911F910F91FF90EF90DF90CF909D
:10076000BF90AF909F908F90089526EB30E046E3C6
:1007700051E070E060E08CE090E0D7DC2EE830E003
:1007800046E351E061E070E08CE090E0CEDC2AE0EE
:1007900031E046E351E062E070E08CE090E0C5DCDF
:1007A0002EED30E046E351E063E070E08CE090E055
:1007B000BCDC26EB30E046E351E064E070E08CE026
:1007C00090E0B3DC2EE830E046E351E065E070E015
:1007D0008CE090E0AADC2AE031E046E351E066E0FC
:1007E00070E08CE090E0A1DC2EED30E046E351E0DB
:1007F00067E070E08CE090E098DC46E351E06CE06C
:1008000070E088E090E00ECD85E087BB18BA0895CF
:10081000EF92FF921F93CF93DF93182F8091660082
:10082000909167008130910509F482C08230910572
:1008300009F459C0892B09F075C06091600070916E
:10084000610020E04CE651E08091620090916300ED
:10085000A6DE11FF03C08CE691E04ADDE090620065
:10086000F090630013FDF6C0C0916000D09161006C
:1008700014FDFCC015FF12C0E0906200F090630010
:100880008FEFE81AF80AAE01B7018CE691E08ADD35
:10089000892B21F4F0926300E0926200E090620004
:1008A000F0906300AE01B7018CE691E07BDD9093A0
:1008B000670080936600892B29F42196D09361000C
:1008C000C0936000209164002F5F60916000709180
:1008D00061004CE651E0C70162DEDF91CF911F91CC
:1008E000FF90EF9042CFA0DE84E090E0CBDE3DDFD2
:1008F0002FEF80E792E0215080409040E1F700C068
:10090000000090E080E0BEDE81E090E09093670020
:10091000809366001092690110926801109267013D
:1009200010926601DF91CF911F91FF90EF90089593
:1009300012DE60916A0170916B018CE691E0C9DC76
:1009400080916A0190916B01019666E070E0C2D0DF
:1009500090936B0180936A0120E040E751E069E0E9
:1009600070E08FE090E01BDE60916A0170916B0196
:1009700080E791E0AEDC8091640090916500019683
:1009800023E030E0B901A6D0909365008093640025
:100990000196B9019FD021E0280F40E751E069E0BE
:1009A00070E08FE090E0FBDD48E650E070E060E052
:1009B0008CE090E084DE48E650E061E070E08CE09E
:1009C00090E07DDE409166015091670162E070E049
:1009D00080E190E090DE409166015091670163E014
:1009E00070E080E190E087DE4FE650E064E070E088
:1009F0008CE090E064DE4FE650E065E070E08CE073
:100A000090E05DDE409168015091690166E070E020
:100A100080E190E070DE409168015091690167E0EB
:100A200070E080E190E067DE10926700109266004F
:100A300085E090E090936300809362008EEF9FEFDB
:100A400090936100809360006DCF2196D0936100F8
:100A5000C0936000C0916000D0916100AE01B70109
:100A60008CE691E09FDC019781F7FECE21E0E21A4F
:100A7000F108AE01B7018CE691E094DC892B09F016
:100A8000F9CEF0926300E0926200F4CEBDDECCDDE0
:100A900048EE53E090E080E024E630E066B36A730D
:100AA000862B21503109D1F741505109A9F7B0DE09
:100AB000EFCF0024552704C0080E591F880F991F37
:100AC000009729F076956795B8F37105B9F7802DF1
:100AD000952F089597FB072E16F4009406D077FD06
:100AE00008D00BD007FC05D03EF4909581959F4F20
:100AF0000895709561957F4F0895AA1BBB1B51E126
:100B000007C0AA1FBB1FA617B70710F0A61BB70B7D
:100B1000881F991F5A95A9F780959095BC01CD0122
:060B20000895F894FFCFD8
:100B2600FEFF030001000200080106070209000497
:100B3600030502080900000F0000000E0200000273
:100B46000E000006060000060C00000C0600000061
:100B56000000080E0000080E0000040E0000080E3B
:100B660000000A0A00000A0E000008080000020E33
:100B760000000800000000000000000E0808000E3B
:100B8600080E000E040400080808000E0A0A000EEB
:100B96000A0A000E0808000E080E000008000000F1
:100BA60000000A040000040E0000080E0000020CFB
:100BB60000000E020000020E00000A0E00000404EF
:100BC60000000A0E0000020E0000000000000004F3
:100BD6000A0A00040C04000C0204000C02060008B9
:100BE600080A000E080E000E080E000E0204000E83
:100BF6000A0E000E0A0E000000000F0F0F0F0F095D
:100C0600090F0F08090A0A050A05000F0F00060654
:100C1600060606070700060E0E0005000400030080
:060C2600020001000000C5
:00000001FF
