:100000000EC028C027C026C025C024C023C022C0DF
:1000100021C020C01FC01EC01DC01CC01BC0112499
:100020001FBECFE5D2E0DEBFCDBF11E0A0E6B0E05D
:10003000E2E8F5E002C005900D92A238B107D9F7C9
:1000400022E0A2E8B1E001C01D92A632B207E1F7BA
:10005000B9D195C2D5CF86B38A7390E0089528E0D0
:1000600030E044E055E018BA80FF07C058BB9595D2
:10007000879521503109B9F7089548BBF8CF8830EA
:10008000910588F46830710570F4FC0183E0EE0F8F
:10009000FF1F8A95E1F7E60FF71FEE0FFF1FEA57E4
:1000A000FE4F5183408308958830910590F4683065
:1000B000710578F4FC0183E0EE0FFF1F8A95E1F7EC
:1000C000E60FF71FEE0FFF1FEA57FE4F8081918169
:1000D00008958FEF9FEF0895E6E8F1E09183808324
:1000E0009383828395838483978386839187808794
:1000F000938782879587848797878687709622E083
:10010000E630F20759F70895AF92BF92CF92DF928F
:10011000EF92FF920F931F93CF93DF936C0106E84A
:1001200011E026E9E22E21E0F22ED0E0C0E022C06C
:10013000F50184E0EE0FFF1F8A95E1F7E00FF11F54
:100140000190F081E02D94E0EE0FFF1F9A95E1F70A
:10015000EC0DFD1DEC0FFD1F8081918180DF8FEF85
:10016000A81AB80A88E0A816B10411F72296C0317F
:10017000D10519F0B12CA12CDBCF0E5F1F4FE0167B
:10018000F10699F6DF91CF911F910F91FF90EF90BB
:10019000DF90CF90BF90AF900895FB0125E0EE0F68
:1001A000FF1F2A95E1F7EA59FF4F9C01205E3F4F60
:1001B00041915191DC014D935D93CD01A217B3079D
:1001C000B9F70895CF93DF93CDB7DEB7A0970FB6F9
:1001D000F894DEBF0FBECDBF9E012F5F3F4FAC0135
:1001E000405E5F4FD901FC01619171916D937D93E8
:1001F000E417F507C9F7B901685F7F4FDC0150E0EC
:1002000040E0FA01EE0FFF1FEE0FFF1FEE0FFF1F82
:10021000E20FF31F0190F081E02DED93FD934F5F0E
:100220005F4F4430510569F708962E5F3F4F261700
:10023000370721F7A0960FB6F894DEBF0FBECDBFEB
:10024000DF91CF9108954F925F926F927F928F923C
:100250009F92AF92BF92CF92DF92EF92FF920F9355
:100260001F93CF93DF93EA012B0121E0421A51083B
:100270006C013A0184E0680E711C912C812C7B0189
:10028000E3E0EE0EF11C56018201F501819191919E
:100290005F018130910541F5C130D105A1F0C83031
:1002A000D105A1F4DF91CF911F910F91FF90EF90B5
:1002B000DF90CF90BF90AF909F908F907F906F9086
:1002C0005F904F90089588248394912C08301105F5
:1002D000D0F4C830D10540F4BE01C801E5DE892B59
:1002E00019F0C4010196DECF0F5F1F4F0E151F05D9
:1002F00061F62196F8E0CF0ED11CC615D70519F688
:1003000090E080E0CFCF83E090E0CCCF4F925F923F
:100310006F927F928F929F92AF92BF92CF92DF9215
:10032000EF92FF920F931F93CF93DF934A0139010E
:1003300001975C01EB012197D12CC12C260183E0B0
:10034000440C551C8A95E1F7480C591C750110E0C6
:1003500000E088E0E816F10480F4C830D10568F4C4
:10036000F801EE0FFF1FE40DF51D808191810197CB
:1003700021F4A301BE01C70182DE8FEFE81AF80A5B
:100380000F5F1F4F0430110521F721968FEFC81A18
:10039000D80A84E0C816D10489F6DF91CF911F9165
:1003A0000F91FF90EF90DF90CF90BF90AF909F9014
:1003B0008F907F906F905F904F90089585E087BBFE
:1003C00018BA0895FBDF90E080E086DE83E0C82E57
:1003D000D12C9EEFA92EBB24BA94EE24E394F12CE9
:1003E00080916400909165008130910509F455C0B9
:1003F0008230910509F449C00097B1F7609160001F
:100400007091610030E020E046E052E080916200AF
:10041000909163007BDF86B381FF75C086E092E038
:10042000D1DE009160001091610090906200C09157
:100430006300A801692D7C2F86E092E004DF909391
:10044000650080936400892B31F40F5F1F4F109378
:1004500061000093600020918401309185016091DA
:1004600060007091610046E052E0892D9C2F4EDFC4
:1004700086E291E049DE2FEF81EE94E0215080404A
:100480009040E1F700C00000ABCF90E080E024DEB8
:10049000F0926500E0926400A3CF609182017091B8
:1004A000830186E092E079DE809182019091830160
:1004B000019686309105ECF490938301809382013C
:1004C0008091840190918501019685309105B4F465
:1004D00090938501809384011092650010926400CE
:1004E000D0926300C0926200B0926100A09260005E
:1004F00077CF1092830110928201E2CFF0928501B2
:10050000E0928401E9CFC0916200D091630083FF43
:100510001FC00091600010916100A801BE0186E03B
:1005200092E091DE019769F49C2ECD2FA801692DF0
:100530007D2F86E092E087DE9093650080936400D3
:100540008ACF0F5F1F4F1093610000936000E1CFCF
:10055000409160005091610084FF0DC02197BE0161
:1005600086E092E070DE892B09F05BCFD0936300C8
:10057000C093620056CF85FF54CF2196F0CFF894F8
:02058000FFCFAB
:10058200FEFF030002000000000000000000010066
:100592000100010001000000000000000000000056
:1005A2000000000000000000000000000000010048
:1005B2000100010000000000000001000000000036
:1005C2000000000000000000000000000000000029
:1005D2000000010000000100010001000000000015
:1005E2000000000000000000000000000000000009
:1005F20001000100000000000100010000000000F5
:1006020000000000000000000000000000000000E8
:1006120001000100000001000100000000000000D4
:1006220000000000000000000000000000000100C7
:1006320001000000000000000100010000000000B5
:1006420000000000000000000000000000000000A8
:10065200000000000000FF00FF00FF00FF00FF009D
:10066200FF00FF00FF00FF00810081008100810088
:1006720081008100FF00FF00A5009300C900A500D2
:100682009300C900FF00FF00AB00D500AB00D5000E
:10069200AB00D500FF0005000400030002000100CA
:0206A200000056
:00000001FF
