:100000000EC028C027C026C025C024C023C022C0DF
:1000100021C020C01FC01EC01DC01CC01BC0112499
:100020001FBECFE5D2E0DEBFCDBF11E0A0E6B0E05D
:10003000EAE7F5E002C005900D92A233B107D9F7C7
:1000400021E0A2E3B1E001C01D92A43DB207E1F7B7
:10005000BAD191C2D5CF88B38C7390E0089528E0CF
:1000600030E041E053E018BA80FF02C058BB01C045
:1000700048BB95958795215031092115310599F790
:10008000089524E331E080E090E0F901E80FF91FE2
:1000900011821082029680319105B9F7205F3F4F9F
:1000A00081E0243B380779F70895CF92DF92EF92F1
:1000B000FF920F931F93CF93DF9304E311E0C0E00F
:1000C000D0E0E12CF12C6E0181E0C822DD24F801A2
:1000D000EE0DFF1D80819181892B89F0209719F009
:1000E000C730D10519F48FEF90E00BC0C114D104D3
:1000F00019F489EA90E005C085E990E002C080E04B
:1001000090E0ADDF80E1E80EF11C80E8E816F10434
:10011000F1F62196C830D105A1F60E5F1F4F81E0A0
:100120000434180761F6DF91CF911F910F91FF9072
:10013000EF90DF90CF900895E5E0660F771FEA9586
:10014000E1F76A597F4F20E030E0FB01E20FF31F37
:1001500040815181FC0141935193CF012E5F3F4F6C
:100160002032310591F70895CF92DF92EF92FF92FE
:100170000F931F93CF93DF93CDB7DEB7A0970FB642
:10018000F894DEBF0FBECDBFFE0131968F019E01F8
:100190002F5D3F4FDC014D915D9141935193E217EB
:1001A000F307C9F720E030E0B901660F771F660F4B
:1001B000771F680F791F40E050E0D901A00FB11FF1
:1001C0007B01E40EF51EFA01EE0FFF1FEE0FFF1F7D
:1001D000EA0FFB1FC080D180F701D182C0824E5F41
:1001E0005F4F4830510561F72E5F3F4F2830310592
:1001F000D9F6A0960FB6F894DEBF0FBECDBFDF9143
:10020000CF911F910F91FF90EF90DF90CF900895C5
:100210008F929F92AF92BF92CF92DF92EF92FF9216
:100220000F931F93CF93DF937C015B0181E0A81AAA
:10023000B108B3E0660F771FBA95E1F7640F751F39
:10024000660F771FE0E0F0E000E010E06C5C7E4FAE
:10025000EF01CC0FDD1FCC0FDD1FCE0DDF1D6B01BD
:10026000CE0EDF1E450120E030E0CE01820F931F4D
:10027000DC018D919C918130910509F5413051054A
:1002800021F04830510519F42EC001E010E0B8E02B
:100290008B16910430F54830510588F4C901A3E06C
:1002A000880F991FAA95E1F78C0D9D1D4097DC01E1
:1002B0008D919C91892B19F0C801019614C0BFEF54
:1002C0008B1A9B0A2E5F3F4F2830310571F64F5F26
:1002D0005F4F3296E830F10509F0BACF80E090E048
:1002E00002C083E090E0DF91CF911F910F91FF90CA
:1002F000EF90DF90CF90BF90AF909F908F90089538
:10030000AF92BF92CF92DF92EF92FF920F931F9323
:10031000CF93DF935C01A1E0AA1AB1087B01E1E071
:10032000EE1AF108E3E0880F991FEA95E1F7860FCE
:10033000971F880F991FE0E0F0E08E5C9E4F8F01C1
:10034000000F111F000F111F040F151F6C01CE0E9F
:10035000DF1EE50160E070E0C830D105C0F4A8E020
:10036000EA16F104A0F4D801A60FB71F0D90BC91B6
:10037000A02D119761F4DB01AA0FBB1FAA0FBB1FB1
:10038000AA0FBB1FAC0DBD1D50972D933C9321961A
:100390006E5F7F4F68307105F9F66FEFE61AF60A67
:1003A0003296E830F10559F6DF91CF911F910F9108
:1003B000FF90EF90DF90CF90BF90AF9008958FE0C7
:1003C00087BB18BA0895FBDF5CDE06E010E0A3E00F
:1003D000EA2EF12CBEEFCB2EDD24DA94AA24A394CE
:1003E000B12C80916400909165008130910561F09D
:1003F0008230910519F00097C1F725C042DEB09216
:100400006500A0926400EDCF6091320170913301DC
:1004100084EB91E091DE809132019091330101965D
:10042000B80182D09093330180933201109265001D
:1004300010926400F0926300E0926200D09261003A
:10044000C0926000CECF609160007091610020E0AA
:1004500030E044EB51E0809162009091630050DF06
:1004600088B382FF04C084EB91E07EDE2EC0C09191
:100470006200D091630083FF13C080906000909071
:100480006100A401BE0184EB91E0C2DE0197E9F0B6
:100490002FEF821A920A9092610080926000EDCF55
:1004A000409160005091610084FF02C0219703C019
:1004B00085FF0BC02196BE0184EB91E0A9DE892B5C
:1004C00021F4D0936300C09362008090600090900C
:1004D0006100C0916200D0916300A401BE0184EB71
:1004E00091E096DE9093650080936400892B39F447
:1004F0008FEF881A980A9092610080926000609154
:100500006000709161002FEF30E044EB51E0CE01CC
:10051000F7DECBDD9FEF20E782E091502040804066
:10052000E1F700C000005DCF97FB072E16F40094A2
:1005300006D077FD08D00BD007FC05D03EF490958F
:1005400081959F4F0895709561957F4F0895AA1BDF
:10055000BB1B51E107C0AA1FBB1FA617B70710F0AE
:10056000A61BB70B881F991F5A95A9F780959095E0
:0A057000BC01CD010895F894FFCFFF
:10057A00FEFF03000200000000000000000001006E
:10058A00010001000100000000000000000000005E
:10059A000000000000000000000000000000010050
:1005AA00010001000000000000000100000000003E
:1005BA000000000000000000000000000000000031
:1005CA00000001000000010001000100000000001D
:1005DA000000000000000000000000000000000011
:1005EA0001000100000000000100010000000000FD
:1005FA0000000000000000000000000000000000F1
:10060A0001000100000001000100000000000000DC
:10061A0000000000000000000000000000000100CF
:10062A0001000000000000000100010000000000BD
:10063A0000000000000005000400030002000100A1
:02064A000000AE
:00000001FF
