:100000000EC028C027C026C025C024C023C022C0DF
:1000100021C020C01FC01EC01DC01CC01BC0112499
:100020001FBECFE5D2E0DEBFCDBF10E0A0E6B0E05E
:10003000E4EAF5E002C005900D92A63EB107D9F7BB
:1000400021E0A6EEB0E001C01D92AA38B207E1F7A8
:1000500093D2A6C2D5CF86B38A7390E0089528E0E4
:1000600030E094E045E018BA87FF02C048BB01C009
:1000700098BB880F21503109B1F70895803191055F
:1000800000F560317105E8F4FB01F595E7959C01F9
:1000900053E0220F331F5A95E1F7D901A65FBE4FF7
:1000A000AE0FBF1F9C9160FF04C04295407F9F70C0
:1000B00001C0907F492BC901865F9E4FE80FF91F51
:1000C0004083089580319105A8F46031710590F462
:1000D0009B013595279553E0880F991F5A95E1F7B5
:1000E000865F9E4FFC01E20FF31F808160FD8295C9
:1000F0008F7008958FEF0895982F9295907F892B98
:100100004AE051E020E030E0FA01E20FF31F808383
:100110002F5F3F4F28303105B9F7485F5F4F91E0BF
:100120004A38590779F70895BF92CF92DF92EF923C
:10013000FF920F931F93CF93DF937C0100E010E0B9
:10014000C0E0D0E0C12CD12CB801C601BBDFB82E75
:10015000B801C6010196B6DFEB2DF0E0EE0FFF1FF0
:10016000EE0FFF1FEE0DFF1DEC0FFD1F908192950E
:10017000907FE82FF0E0EE0FFF1FEE0FFF1FEE0D58
:10018000FF1DEC0FFD1F8081892B69DF82E0C80E07
:10019000D11C80E1C816D104B9F62196C430D1052E
:1001A00089F60F5F1F4F0031110551F6DF91CF9196
:1001B0001F910F91FF90EF90DF90CF90BF90089527
:1001C00024E0660F771F2A95E1F720E030E0F9017F
:1001D000E60FF71FEA59FF4F408150E0FC014193C1
:1001E0005193CF012F5F3F4F2031310581F70895A3
:1001F0000F931F93CF93DF93CDB7DEB7A0970FB6C2
:10020000F894DEBF0FBECDBFAC01BE016F5F7F4F64
:100210009E012F5D3F4FFB01DC010D911D9101936C
:1002200011932E173F07C9F78096FA0120E030E0BE
:10023000DB01A20FB31F0D90BC91A02DA193B19330
:10024000285F3F4F2032310599F7485F5F4F6E5F5F
:100250007F4F4817590749F7A0960FB6F894DEBFAD
:100260000FBECDBFDF91CF911F910F9108954F9297
:100270005F926F927F928F929F92AF92BF92CF9236
:10028000DF92EF92FF920F931F93CF93DF93EA01D8
:100290002B0121E0421A51086C013A0184E0680EFA
:1002A000711C812C912C7B01E3E0EE0EF11C5601B8
:1002B0008201F501819191915F0181309105C1F435
:1002C000C130D10521F0C031D10521F422C08824EC
:1002D0008394912C0D301105D0F4C031D10540F438
:1002E000BE01C801EFDE882319F0C401019611C0D8
:1002F0000F5F1F4F0E151F05E1F62196F8E0CF0E98
:10030000D11CC615D70599F680E090E002C083E0C5
:1003100090E0DF91CF911F910F91FF90EF90DF90D0
:10032000CF90BF90AF909F908F907F906F905F9095
:100330004F9008957F928F929F92AF92BF92CF92EB
:10034000DF92EF92FF920F931F93CF93DF934A01B7
:10035000722E01975C01EB012197C12CD12C750104
:1003600000E010E08DE0E816F10490F4C031D10512
:1003700078F4F801EC0DFD1DEE0FFF1FE80DF91DDF
:1003800080819181019721F4472DBE01C70176DE5E
:100390008FEFE81AF80A0F5F1F4F0430110511F7AD
:1003A000219684E0C80ED11C80E1C816D104B9F6AC
:1003B000DF91CF911F910F91FF90EF90DF90CF9041
:1003C000BF90AF909F908F907F90089585E087BBFE
:1003D00018BA0895FF920F931F93CF93DF93F82ECF
:1003E00080916400909165008130910581F08230A8
:1003F000910521F0892B09F0B9C040C080E07CDE76
:1004000081E090E09093650080936400AFC06091BC
:10041000E6007091E7008AEE90E0D2DE8091E6007F
:100420009091E7000196863091052CF49093E700B7
:100430008093E60004C01092E7001092E6008091DD
:10044000E8009091E90001968530910514F081E073
:1004500090E09093E9008093E8001092650010927C
:10046000640083E090E090936300809362008EEFDD
:100470009FEF909361008093600078C0609160006E
:100480007091610020E030E04AEE50E0809162001F
:10049000909163004FDFF1FE03C08AEE90E0A8DE8A
:1004A0000091620010916300F3FC07C0C0916000EE
:1004B000D0916100F4FC12C01EC0C0916000D091C8
:1004C0006100AE01B8018AEE90E0D1DE019771F3D0
:1004D0002196D0936100C0936000EFCF01501109C5
:1004E000AE01B8018AEE90E0C2DE892B21F41093B0
:1004F000630000936200F5FE11C00091620010914C
:1005000063000F5F1F4FAE01B8018AEE90E0AFDECF
:10051000892B21F410936300009362000091620024
:1005200010916300AE01B8018AEE90E0A0DE9093D6
:10053000650080936400892B29F42196D093610093
:10054000C09360002091E8003091E9006091600064
:10055000709161004AEE50E0C801ECDE86EC90E05C
:10056000DF91CF911F910F91FF90DECDDF91CF9161
:100570001F910F91FF90089529DF80E0BDDD48EEC7
:1005800053E080E090E024E630E066B36A73862BA7
:1005900021503109D1F741505109A9F71BDFEFCFA5
:0405A000F894FFCFFD
:1005A400FEFF030002000000000001010101000041
:1005B4000000000000000000000001010100000034
:1005C4000100000000000000000000000100010123
:1005D4000100000000000000000000010100000113
:1005E4000100000000000000000000010100010102
:1005F40000000000000000000000010100000001F4
:1006040001000000000000000000FFFFFFFF0F0AD0
:100614000D0A0F0A0C090F080F0805000400030057
:06062400020001000000CD
:00000001FF
