:100000000EC028C027C026C025C024C023C022C0DF
:1000100021C020C01FC01EC01DC01CC01BC0112499
:100020001FBECFE5D2E0DEBFCDBF11E0A0E6B0E05D
:10003000E2E3F5E002C005900D92A233B107D9F7D3
:1000400021E0A2E3B1E001C01D92A43DB207E1F7B7
:10005000AAD16DC2D5CF88B38A7390E0089528E005
:1000600030E044E055E018BA80FF07C058BB9595D2
:10007000879521503109B9F7089548BBF8CFE4E3DB
:10008000F1E011821082138212821582148217828B
:100090001682118610861386128615861486178698
:1000A0001686709681E0E43BF80759F70895CF92E1
:1000B000DF92EF92FF920F931F93CF93DF9304E3AE
:1000C00011E0D0E0C0E01FC0F70184E0EE0FFF1F99
:1000D0008A95E1F7E00FF11F80819181892B11F161
:1000E000209719F0C730D105A9F48FEF90E0B7DF62
:1000F0008FEFE81AF80A88E0E816F10429F721964C
:10010000C830D10591F0F12CE12C6E0181E0C822BC
:10011000DD24DACF89EA90E0C114D10441F385E906
:1001200090E0E5CF90E080E0E2CF0E5F1F4F81E0EE
:100130000434180731F6DF91CF911F910F91FF9092
:10014000EF90DF90CF900895FB0125E0EE0FFF1FA9
:100150002A95E1F7EA59FF4F9C01205E3F4F4191FC
:100160005191DC014D935D93CD01A217B307B9F70F
:100170000895CF93DF93CDB7DEB7A0970FB6F8946D
:10018000DEBF0FBECDBF9E012F5F3F4FAC01405E73
:100190005F4FD901FC01619171916D937D93E417DB
:1001A000F507C9F7B901685F7F4FDC0150E040E017
:1001B000FA01EE0FFF1FEE0FFF1FEE0FFF1FE20F02
:1001C000F31F0190F081E02DED93FD934F5F5F4FA2
:1001D0004430510569F708962E5F3F4F26173707C1
:1001E00021F7A0960FB6F894DEBF0FBECDBFDF910A
:1001F000CF910895AF92BF92CF92DF92EF92FF928C
:100200000F931F93CF93DF937C018B01A3E0000F2B
:10021000111FAA95E1F7040F151FB0E0A0E0D12C43
:10022000C12C61507109ED0183E0CC0FDD1F8A956F
:10023000E1F7CE0DDF1DFD01E00FF11FEE0FFF1FF7
:10024000CF018C5C9E4F5C0130E020E08991999158
:100250008130910569F54130510571F04830510503
:1002600071F4DF91CF911F910F91FF90EF90DF908C
:10027000CF90BF90AF900895CC24C394D12CCB01E4
:10028000820F931F089718F54830510588F4C9016B
:10029000E4E0880F991FEA95E1F740978A0D9B1DCE
:1002A000FC0180819181892B19F0C6010196D9CF7B
:1002B0002F5F3F4F2430310549F64F5F5F4F119656
:1002C000A430B10509F0AFCF90E080E0CACF83E061
:1002D00090E0C7CFAF92BF92CF92DF92EF92FF92A2
:1002E0000F931F93CF93DF936B0111E0C11AD108D5
:1002F000FC01C3E0EE0FFF1FCA95E1F76E0F7F1FF1
:10030000D0E0C0E001977E01E3E0EE0CFF1CEA952F
:10031000E1F7E40EF51EDB01AC0FBD1FAA0FBB1FFA
:10032000FD01EE5CFE4F5F01F0E0E0E08C010E0F9E
:100330001F1F08301105E0F4A8E0CA16D104C0F46C
:100340008F01000F111F0E0D1F1DD8010D911C9163
:100350000130110569F48F01A4E0000F111FAA9567
:10036000E1F7005111090A0D1B1DD8012D933C9393
:100370003196E430F105D1F6BFEFCB1ADB0A2196B6
:10038000C430D10509F0BFCFDF91CF911F910F91FC
:10039000FF90EF90DF90CF90BF90AF90089585E0F1
:1003A00087BB18BA0895FBDF6ADE83E0E82EF12CE4
:1003B0009EEFC92EDD24DA94AA24A394B12C809157
:1003C0006400909165008130910509F44FC082303E
:1003D000910509F445C00097B1F7609160007091F4
:1003E000610030E020E044EB51E0809162009091A8
:1003F000630070DF88B381FF5EC084EB91E0B9DEFB
:10040000009160001091610090906200C0916300C3
:10041000A801692D7C2F84EB91E0ECDE90936500C0
:1004200080936400892B31F40F5F1F4F109361009C
:100430000093600060916000709161002FEF30E0E8
:1004400044EB51E0892D9C2F45DF31DE2FEF80E713
:1004500092E0215080409040E1F700C00000AFCF13
:100460000EDEB0926500A0926400A9CF60913201C7
:100470007091330184EB91E067DE809132019091BD
:1004800033010196863091058CF49093330180936B
:1004900032011092650010926400F0926300E092C5
:1004A0006200D0926100C092600089CF1092330147
:1004B00010923201EECFC0916200D091630083FFB1
:1004C0001FC00091600010916100A801BE0184EB83
:1004D00091E090DE019769F49C2ECD2FA801692D43
:1004E0007D2F84EB91E086DE90936500809364001D
:1004F000A1CF0F5F1F4F1093610000936000E1CF09
:10050000409160005091610084FF0DC02197BE01B1
:1005100084EB91E06FDE892B09F072CFD0936300FA
:10052000C09362006DCF85FF6BCF2196F0CFF8941A
:02053000FFCFFB
:10053200FEFF0300020000000000000000000100B6
:1005420001000100010000000000000000000000A6
:100552000000000000000000000000000000010098
:100562000100010000000000000001000000000086
:100572000000000000000000000000000000000079
:100582000000010000000100010001000000000065
:100592000000000000000000000000000000000059
:1005A2000100010000000000010001000000000045
:1005B2000000000000000000000000000000000039
:1005C2000100010000000100010000000000000025
:1005D2000000000000000000000000000000010018
:1005E2000100000000000000010001000000000006
:1005F20000000000000005000400030002000100EA
:020602000000F6
:00000001FF
