:100000000EC028C027C026C025C024C023C022C0DF
:1000100021C020C01FC01EC01DC01CC01BC0112499
:100020001FBECFE5D2E0DEBFCDBF10E0A0E6B0E05E
:10003000E4E0F6E002C005900D92A63EB107D9F7C4
:1000400021E0A6EEB0E001C01D92A238B207E1F7B0
:10005000B2D2D6C2D5CF86B38A7390E0089528E095
:1000600030E094E045E018BA87FF06C048BB880F2F
:1000700021503109C1F7089598BBF9CFCF93DF9391
:100080009C01DB01449700F56C307105E8F4EB014D
:10009000D595C795C90166E070E0A1D2FC01E65F85
:1000A000FE4FEC0FFD1F9081A0FF11C04295407FD5
:1000B0009F70492BC90166E070E091D2FC01E65FB8
:1000C000FE4FEC0FFD1F4083DF91CF910895907F8D
:1000D000F0CF9B018431910598F46C30710580F468
:1000E000DB01B595A79566E070E079D2FC01E65F8B
:1000F000FE4FEA0FFB1F808120FD82958F700895CF
:100100008FEF0895982F9295907F892BEAE0F1E088
:1001100022E831E0808381838283838384838583A3
:1001200036962E173F07B1F708959F92AF92BF9270
:10013000CF92DF92EF92FF920F931F93CF93DF93B3
:10014000EC016B017A01CC15DD0564F0DF91CF91F4
:100150001F910F91FF90EF90DF90CF90BF90AF90E5
:100160009F900895B12CA12C10E000E0BE01C801C1
:10017000B0DF982EBE01C8010196ABDFE92DF0E09B
:10018000EE0FFF1FEE0FFF1FEE0DFF1DEA0DFB1D13
:1001900090819295907FE82FF0E0EE0FFF1FEE0F19
:1001A000FF1FEE0DFF1DEA0DFB1D8081892B57DF20
:1001B0000E5F1F4F04311105C9F68FEFA81AB80A58
:1001C00084E0A816B10481F62196BDCFAC016CE0A5
:1001D00070E090E080E0A9CFDB0124E0AA0FBB1F14
:1001E0002A95E1F7AA59BF4FFC019C01205E3F4FC1
:1001F0008D9190E081939193E217F307C9F70895E9
:100200000F931F93CF93DF93CDB7DEB7A0970FB6B1
:10021000F894DEBF0FBECDBF9C01CE010196A901AF
:10022000405E5F4FDC01F901619171916D937D93A7
:10023000E417F507C9F750E040E0FA0163E0EE0F7C
:10024000FF1F6A95E1F7E20FF31FDC0170E060E049
:100250000D911C911197019311936F5F7F4F189629
:1002600064307105A9F74F5F5F4F02964430510526
:1002700021F7A0960FB6F894DEBF0FBECDBFDF9179
:10028000CF911F910F9108954F925F926F927F923D
:100290008F929F92AF92BF92CF92DF92EF92FF9296
:1002A0000F931F93CF93DF933C018B01EA012B0146
:1002B00081E0481A5108B12CA12C912C812C0D5FA2
:1002C0001F4F6501CC0CDD1CC60CD71C7201F6015A
:1002D000819191916F018130910549F5C130D1052E
:1002E000A1F0C031D105A1F4DF91CF911F910F9101
:1002F000FF90EF90DF90CF90BF90AF909F908F9046
:100300007F906F905F904F90089588248394912CF4
:10031000FDE0EF16F104E8F4C031D10540F4BE0170
:10032000C701D7DE882319F0C4010196DDCF8FEF16
:10033000E81AF80A0E151F0551F62196E4E0AE0EF4
:10034000B11CF0E1AF16B10409F0BBCF90E080E042
:10035000CBCF83E090E0C8CF5F926F927F928F9275
:100360009F92AF92BF92CF92DF92EF92FF920F9344
:100370001F93CF93DF934A01522E3C0121E0621A72
:100380007108EB012197D12CC12C5601AA0CBB1C82
:10039000A80CB91C730110E000E08DE0E816F10430
:1003A00080F4C031D10568F4F801EE0FFF1FEA0DAB
:1003B000FB1D80819181019721F4452DBE01C7016C
:1003C0005DDE2FEFE21AF20A0F5F1F4F04301105B6
:1003D00021F7219684E0C80ED11C20E1C216D10479
:1003E000A1F6DF91CF911F910F91FF90EF90DF90D9
:1003F000CF90BF90AF909F908F907F906F905F90C5
:10040000089585E087BB18BA0895EF92FF921F9375
:10041000CF93DF93182F8091640090916500813015
:10042000910509F46FC08230910509F45DC0892BF4
:1004300009F062C0609160007091610030E020E0DE
:100440004AEE50E0809162009091630085DF11FFD9
:1004500003C08AEE90E0D4DEE0906200F09063008A
:1004600013FD8DC0C0916000D091610014FD93C058
:1004700015FF12C0E0906200F09063008FEFE81A61
:10048000F80AAE01B7018AEE90E0FEDE892B21F476
:10049000F0926300E0926200E0906200F0906300EE
:1004A000AE01B7018AEE90E0EFDE90936500809395
:1004B0006400892B29F42196D0936100C0936000D9
:1004C0002091E8003091E900609160007091610036
:1004D0004AEE50E0C70140DF86EC90E0DF91CF911B
:1004E0001F91FF90EF9072CE80E00CDE81E090E0F3
:1004F0009093650080936400DF91CF911F91FF90EE
:10050000EF9008956091E6007091E7008AEE90E028
:1005100063DE8091E6009091E700019686309105B8
:100520000CF59093E7008093E6008091E8009091AD
:10053000E900019685309105D4F49093E900809309
:10054000E800109265001092640083E090E09093C0
:100550006300809362008EEF9FEF90936100809321
:100560006000CACF1092E7001092E600DECF81E073
:1005700090E0E3CF2196D0936100C0936000C091DA
:100580006000D0916100AE01B7018AEE90E07CDEA0
:10059000019781F767CF81E0E81AF108AE01B70152
:1005A0008AEE90E071DE892B09F062CFF092630051
:1005B000E09262005DCF25DF80E0A4DD48EE53E0ED
:1005C00090E080E024E630E066B36A73862B215029
:1005D0003109D1F741505109A9F717DFEFCF0024B6
:1005E000552704C0080E591F880F991F009729F03E
:1005F00076956795B8F37105B9F7802D952F089515
:04060000F894FFCF9C
:10060400FEFF0300020000000000010101010000E0
:1006140000000000000000000000010101000000D3
:1006240001000000000000000000000001000101C2
:1006340001000000000000000000000101000001B2
:1006440001000000000000000000000101000101A1
:100654000000000000000000000001010000000193
:1006640001000000000000000000FFFFFFFF0F0A70
:100674000D0A0F0A0C090F080F08050004000300F7
:060684000200010000006D
:00000001FF
