:100000000EC028C027C026C025C024C023C022C0DF
:1000100021C020C01FC01EC01DC01CC01BC0112499
:100020001FBECFE5D2E0DEBFCDBF11E0A0E6B0E05D
:10003000ECEBF4E002C005900D92A233B107D9F7C2
:1000400021E0A2E3B1E001C01D92A43DB207E1F7B7
:1000500091D132C2D5CF28E030E041E053E018BA68
:1000600080FF02C058BB01C048BB959587952150C1
:1000700031092115310599F7089524E331E080E035
:1000800090E0F901E80FF91F118210820296803189
:100090009105B9F7205F3F4F81E0243B380779F79E
:1000A0000895EF92FF920F931F93CF93DF93C4E3D2
:1000B000D1E078E0E72EF12C00E010E0FE01E00F47
:1000C000F11F80819181C7DF005F1F4F003811054C
:1000D000A9F781E0E81AF108E114F10469F7229622
:1000E00081E0C434D80729F7DF91CF911F910F9198
:1000F000FF90EF900895E5E0660F771FEA95E1F72E
:100100006A597F4F20E030E0FB01E20FF31F40818E
:100110005181FC0141935193CF012E5F3F4F20321B
:10012000310591F70895CF92DF92EF92FF920F93EE
:100130001F93CF93DF93CDB7DEB7A0970FB6F89498
:10014000DEBF0FBECDBFFE0131968F019E012F5D38
:100150003F4FDC014D915D9141935193E217F307BD
:10016000C9F720E030E0B901660F771F660F771FEF
:10017000680F791F40E050E0D901A00FB11F7B014B
:10018000E40EF51EFA01EE0FFF1FEE0FFF1FEA0F40
:10019000FB1FC080D180F701D182C0824E5F5F4FCC
:1001A0004830510561F72E5F3F4F28303105D9F6B1
:1001B000A0960FB6F894DEBF0FBECDBFDF91CF91F2
:1001C0001F910F91FF90EF90DF90CF900895AF9225
:1001D000BF92CF92DF92EF92FF920F931F93CF9334
:1001E000DF935B0121E0A21AB108B3E0660F771F2D
:1001F000BA95E1F7640F751F660F771FE0E0F0E036
:10020000E12CF12C6C5C7E4F8F01000F111F000F51
:10021000111F080F191F6B01CE0EDF1EE50120E034
:1002200030E0D801A20FB31F0D90BC91A02DA130DA
:10023000B10511F54130510521F04830510521F447
:100240002AC0EE24E394F12CC830D105A8F448303C
:10025000510590F4D901AA0FBB1FAA0FBB1FAA0F0B
:10026000BB1FAC0DBD1D50970D90BC91A02DAB2BAD
:1002700019F0D70111960FC021962E5F3F4F2830FD
:10028000310579F64F5F5F4F3296E830F10509F09E
:10029000BBCFA0E0B0E0CD01DF91CF911F910F91D6
:1002A000FF90EF90DF90CF90BF90AF900895AF9206
:1002B000BF92CF92DF92EF92FF920F931F93CF9353
:1002C000DF935C01A1E0AA1AB1087B01E1E0EE1A1C
:1002D000F108E3E0880F991FEA95E1F7860F971F71
:1002E000880F991FE0E0F0E08E5C9E4F8F01000FB9
:1002F000111F000F111F040F151F6C01CE0EDF1E02
:10030000E50160E070E0C830D105C0F4A8E0EA166D
:10031000F104A0F4D801A60FB71F0D90BC91A02D39
:10032000119761F4DB01AA0FBB1FAA0FBB1FAA0F15
:10033000BB1FAC0DBD1D50972D933C9321966E5F56
:100340007F4F68307105F9F66FEFE61AF60A3296BC
:10035000E830F10559F6DF91CF911F910F91FF9091
:10036000EF90DF90CF90BF90AF9008958FE087BB64
:1003700018BA0895FBDF81DEC6E0D0E003E010E0AC
:10038000AEEFEA2EFF24FA94CC24C394D12C8091B2
:100390006400909165008130910561F08230910593
:1003A00019F00097C1F725C068DED0926500C092B1
:1003B0006400EDCF609132017091330184EB91E0E4
:1003C0009ADE80913201909133010196BE014DD0A9
:1003D0009093330180933201109265001092640073
:1003E0001093630000936200F0926100E09260005D
:1003F000CECF609160007091610020E030E044EB6E
:1004000051E0809162009091630051DF8090600024
:1004100090906100A0906200B0906300A401B501CB
:1004200084EB91E0D4DE9093650080936400892B87
:1004300039F42FEF821A920A909261008092600044
:1004400060916000709161002FEF30E044EB51E06B
:10045000C5012DDF26DE8FEF90E722E0815090402E
:100460002040E1F700C0000092CF97FB072E16F462
:10047000009406D077FD08D00BD007FC05D03EF4E1
:10048000909581959F4F0895709561957F4F089540
:10049000AA1BBB1B51E107C0AA1FBB1FA617B707AA
:1004A00010F0A61BB70B881F991F5A95A9F78095C6
:0C04B0009095BC01CD010895F894FFCF99
:1004BC00FEFF03000200000000000000000001002D
:1004CC00010001000100000000000000000000001D
:1004DC00000000000000000000000000000001000F
:1004EC0001000100000000000000010000000000FD
:1004FC0000000000000000000000000000000000F0
:10050C0000000100000001000100010000000000DB
:10051C0000000000000000000000000000000000CF
:10052C0001000100000000000100010000000000BB
:10053C0000000000000000000000000000000000AF
:10054C00010001000000010001000000000000009B
:10055C00000000000000000000000000000001008E
:10056C00010000000000000001000100000000007C
:10057C000000000000000500040003000200010060
:02058C0000006D
:00000001FF
