:100000000EC028C027C026C025C024C023C022C0DF
:1000100021C020C01FC01EC01DC01CC01BC0112499
:100020001FBECFE5D2E0DEBFCDBF11E0A0E6B0E05D
:10003000E4E5F5E002C005900D92A238B107D9F7CA
:1000400022E0A2E8B1E001C01D92A632B207E1F7BA
:10005000B2D17EC2D5CF86B38A7390E0089528E0EE
:1000600030E044E055E018BA80FF02C058BB01C040
:1000700048BB95958795215031092115310599F790
:1000800008958830910588F46830710570F4FC019A
:10009000A3E0EE0FFF1FAA95E1F7E60FF71FEE0FA3
:1000A000FF1FEA57FE4F5183408308958830910522
:1000B00090F46830710578F4FC0183E0EE0FFF1FC7
:1000C0008A95E1F7E60FF71FEE0FFF1FEA57FE4F85
:1000D0008081918108958FEF9FEF089546E851E068
:1000E00020E030E0FA01E20FF31F918380832E5F5E
:1000F0003F4F20313105B1F7405F5F4F22E046307E
:10010000520771F70895CF92DF92EF92FF920F930B
:100110001F93CF93DF936C0106E811E0C0E0D0E0BD
:10012000E12CF12CF801EE0DFF1D0190F081E02D86
:1001300024E0EE0FFF1F2A95E1F7EC0DFD1DEC0FFB
:10014000FD1F808191818BDF80E1E80EF11C80E84A
:10015000E816F10439F72296C031D10509F70E5F90
:100160001F4F81E006391807C9F6DF91CF911F9123
:100170000F91FF90EF90DF90CF90089535E0660FDC
:10018000771F3A95E1F76A597F4F20E030E0FB0195
:10019000E20FF31F40815181FC0141935193CF0144
:1001A0002E5F3F4F2032310591F70895CF92DF92B5
:1001B000EF92FF920F931F93CF93DF93CDB7DEB7EC
:1001C000A0970FB6F894DEBF0FBECDBFFE013196EB
:1001D0008F019E012F5D3F4FDC014D915D91419359
:1001E0005193E217F307C9F720E030E0B901660F39
:1001F000771F660F771F680F791F40E050E0D90125
:10020000A00FB11F7B01E40EF51EFA01EE0FFF1FD8
:10021000EE0FFF1FEA0FFB1FC080D180F701D182D4
:10022000C0824E5F5F4F4830510561F72E5F3F4FF0
:1002300028303105D9F6A0960FB6F894DEBF0FBE70
:10024000CDBFDF91CF911F910F91FF90EF90DF9085
:10025000CF9008956F927F928F929F92AF92BF92AC
:10026000CF92DF92EF92FF920F931F93CF93DF9382
:100270006B01EA0121E0C21AD1085C014A0184E065
:10028000880E911C612C712C760100E010E0F501C4
:10029000E00FF11F8081918181309105C9F4C13057
:1002A000D10521F0C830D10521F426C0662463941D
:1002B000712C28E0E216F104E8F4C830D10540F4CE
:1002C000BE01C701F3DE892B19F0C301019614C0EA
:1002D0008FEFE81AF80A0E5F1F4F08301105B9F6C4
:1002E000219628E0A20EB11CC815D90569F680E058
:1002F00090E002C083E090E0DF91CF911F910F91D9
:10030000FF90EF90DF90CF90BF90AF909F908F9035
:100310007F906F9008956F927F928F929F92AF928D
:10032000BF92CF92DF92EF92FF920F931F93CF93E2
:10033000DF93490101976C01EB0121978A015B0171
:1003400083E0A80EB11C3601E12CF12C88E0681680
:10035000710470F4C830D10558F4F801EE0DFF1D9A
:1003600080819181019721F4A401BE01C30189DE3E
:100370008FEF681A780A82E0E80EF11C88E0E81630
:10038000F10421F72196085F1F4FCA15DB05D9F646
:10039000DF91CF911F910F91FF90EF90DF90CF9061
:1003A000BF90AF909F908F907F906F90089585E061
:1003B00087BB18BA0895FBDF80E090E08FDE93E002
:1003C000E92EF12C2EEFC22EDD24DA9401E010E0AC
:1003D00080916400909165008130910571F08230C8
:1003E000910519F00097C1F73EC080E090E076DEFD
:1003F0001093650000936400EBCF609182017091CF
:10040000830186E092E0BADE8091820190918301BF
:100410000196863091052CF490938301809382019C
:1004200004C0109283011092820180918401909106
:1004300085010196853091052CF490938501809378
:10044000840104C01093850100938401109265001B
:1004500010926400F0926300E0926200D09261001A
:10046000C0926000B5CF609160007091610020E0A3
:1004700030E046E052E080916200909163004BDFF3
:1004800086B381FF04C086E092E090DE2EC0C0916A
:100490006200D091630083FF13C0A0906000B09011
:1004A0006100A501BE0186E092E0D4DE0197E9F08B
:1004B0002FEFA21AB20AB0926100A0926000EDCFB5
:1004C000409160005091610084FF02C0219703C0F9
:1004D00085FF0BC02196BE0186E092E0BBDE892B32
:1004E00021F4D0936300C0936200A0906000B090AC
:1004F0006100C0916200D0916300A501BE0186E059
:1005000092E0A8DE9093650080936400892B39F413
:100510008FEFA81AB80AB0926100A09260002091F3
:10052000840130918501609160007091610046E026
:1005300052E0CE01F0DE86E291E0E5DD9FEF21EEB4
:1005400084E0915020408040E1F700C0000040CF9F
:04055000F894FFCF4D
:10055400FEFF030002000000000000000000010094
:100564000100010001000000000000000000000084
:100574000000000000000000000000000000010076
:100584000100010000000000000001000000000064
:100594000000000000000000000000000000000057
:1005A4000000010000000100010001000000000043
:1005B4000000000000000000000000000000000037
:1005C4000100010000000000010001000000000023
:1005D4000000000000000000000000000000000017
:1005E4000100010000000100010000000000000003
:1005F40000000000000000000000000000000100F6
:1006040001000000000000000100010000000000E3
:1006140000000000000000000000000000000000D6
:10062400000000000000FF00FF00FF00FF00FF00CB
:10063400FF00FF00FF00FF008100810081008100B6
:1006440081008100FF00FF00A5009300C900A50000
:100654009300C900FF00FF00AB00D500AB00D5003C
:10066400AB00D500FF0005000400030002000100F8
:02067400000084
:00000001FF
