:100000000EC028C027C026C025C024C023C022C0DF
:1000100021C020C01FC01EC01DC01CC01BC0112499
:100020001FBECFE5D2E0DEBFCDBF11E0A0E6B0E05D
:10003000ECE6F5E002C005900D92A238B107D9F7C1
:1000400022E0A2E8B1E001C01D92A632B207E1F7BA
:1000500076D28AC2D5CF86B38A7390E0089528E01D
:1000600030E044E055E018BA80FF02C058BB01C040
:1000700048BB9595879521503109A9F70895883097
:10008000910588F46830710570F4FC0183E0EE0F8F
:10009000FF1F8A95E1F7E60FF71FEE0FFF1FEA57E4
:1000A000FE4F5183408308958830910590F4683065
:1000B000710578F4FC0183E0EE0FFF1F8A95E1F7EC
:1000C000E60FF71FEE0FFF1FEA57FE4F8081918169
:1000D00008958FEF9FEF089546E851E020E030E06B
:1000E000FA01E20FF31F918380832E5F3F4F20318F
:1000F0003105B1F7405F5F4F22E04630520771F79C
:100100000895AF92BF92CF92DF92EF92FF920F933A
:100110001F93CF93DF936C0106E811E096E9E92E77
:1001200091E0F92EC0E0D0E0A12CB12CF801EA0D4D
:10013000FB1D0190F081E02D84E0EE0FFF1F8A95FA
:10014000E1F7EC0DFD1DEC0FFD1F8081918187DF34
:1001500080E1A80EB11C80E8A816B10439F72296F8
:10016000C031D10509F70E5F1F4FE016F106D1F639
:10017000DF91CF911F910F91FF90EF90DF90CF9083
:10018000BF90AF900895FB0125E0EE0FFF1F2A9569
:10019000E1F7EA59FF4F9C01205E3F4F4191519199
:1001A000DC014D935D93CD01A217B307B9F7089514
:1001B0000F931F93CF93DF93CDB7DEB7A0970FB602
:1001C000F894DEBF0FBECDBFAC01BE016F5F7F4FA5
:1001D0009E012F5D3F4FFB01DC010D911D910193AD
:1001E00011932E173F07C9F78096FA0120E030E0FF
:1001F000DB01A20FB31F0D90BC91A02DA193B19371
:10020000285F3F4F2032310599F7485F5F4F6E5F9F
:100210007F4F4817590749F7A0960FB6F894DEBFED
:100220000FBECDBFDF91CF911F910F9108954F92D7
:100230005F926F927F928F929F92AF92BF92CF9276
:10024000DF92EF92FF920F931F93CF93DF93EA0118
:100250002B0121E0421A51086C013A0184E0680E3A
:10026000711C812C912C7B01E3E0EE0EF11C5601F8
:100270008201F501819191915F0181309105C1F475
:10028000C130D10521F0C830D10521F422C0882425
:100290008394912C08301105D0F4C830D10540F476
:1002A000BE01C80101DF892B19F0C401019611C0FC
:1002B0000F5F1F4F0E151F05E1F62196F8E0CF0ED8
:1002C000D11CC615D70599F680E090E002C083E006
:1002D00090E0DF91CF911F910F91FF90EF90DF9011
:1002E000CF90BF90AF909F908F907F906F905F90D6
:1002F0004F9008956F927F928F929F92AF92BF928C
:10030000CF92DF92EF92FF920F931F93CF93DF93E1
:100310004A01390101975C01EB012197C12CD12CD5
:10032000750100E010E088E0E816F10490F4C830B0
:10033000D10578F4F801EC0DFD1DEE0FFF1FE80D5F
:10034000F91D80819181019721F4A301BE01C701AC
:1003500096DE8FEFE81AF80A0F5F1F4F0430110581
:1003600011F7219684E0C80ED11C80E1C816D10493
:10037000B9F6DF91CF911F910F91FF90EF90DF9031
:10038000CF90BF90AF909F908F907F906F90089587
:1003900085E087BB18BA0895FF920F931F93CF9300
:1003A000DF93F82E80916400909165008130910573
:1003B00089F08230910521F0892B09F0BAC041C043
:1003C00080E090E089DE81E090E09093650080938A
:1003D0006400AFC0609182017091830186E092E079
:1003E000D2DE809182019091830101968630910541
:1003F0002CF4909383018093820104C010928301B6
:10040000109282018091840190918501019685303E
:10041000910514F081E090E0909385018093840130
:10042000109265001092640083E090E09093630066
:10043000809362008EEF9FEF909361008093600045
:1004400078C0609160007091610020E030E046E08B
:1004500052E080916200909163004CDFF1FE03C096
:1004600086E092E0A5DE0091620010916300F3FC4B
:1004700007C0C0916000D0916100F4FC12C01EC0A2
:10048000C0916000D0916100AE01B80186E092E0B9
:10049000CEDE019771F32196D0936100C093600086
:1004A000EFCF01501109AE01B80186E092E0BFDE46
:1004B000892B21F41093630000936200F5FE11C0B4
:1004C00000916200109163000F5F1F4FAE01B801F1
:1004D00086E092E0ACDE892B21F410936300009358
:1004E00062000091620010916300AE01B80186E0E5
:1004F00092E09DDE9093650080936400892B29F43F
:100500002196D0936100C0936000209184013091C6
:100510008501609160007091610046E052E0C80181
:10052000E9DE86E291E0DF91CF911F910F91FF907C
:10053000E8CDDF91CF911F910F91FF90089528DFB3
:1005400080E090E0C9DD48EE53E080E090E024E6F2
:1005500030E066B36A73862B21503109D1F74150E0
:0C0560005109A9F719DFEFCFF894FFCF85
:10056C00FEFF03000200000000000000000001007C
:10057C00010001000100000000000000000000006C
:10058C00000000000000000000000000000001005E
:10059C00010001000000000000000100000000004C
:1005AC00000000000000000000000000000000003F
:1005BC00000001000000010001000100000000002B
:1005CC00000000000000000000000000000000001F
:1005DC00010001000000000001000100000000000B
:1005EC0000000000000000000000000000000000FF
:1005FC0001000100000001000100000000000000EB
:10060C0000000000000000000000000000000100DD
:10061C0001000000000000000100010000000000CB
:10062C0000000000000000000000000000000000BE
:10063C00000000000000FF00FF00FF00FF00FF00B3
:10064C00FF00FF00FF00FF0081008100810081009E
:10065C0081008100FF00FF00A5009300C900A500E8
:10066C009300C900FF00FF00AB00D500AB00D50024
:10067C00AB00D500FF0005000400030002000100E0
:02068C0000006C
:00000001FF
