:100000000EC028C027C026C025C024C023C022C0DF
:1000100021C020C01FC01EC01DC01CC01BC0112499
:100020001FBECFE5D2E0DEBFCDBF11E0A0E6B0E05D
:10003000E4E5F5E002C005900D92A238B107D9F7CA
:1000400022E0A2E8B1E001C01D92A632B207E1F7BA
:10005000A3D17EC2D5CF86B38A7390E0089528E0FD
:1000600030E044E055E018BA80FF02C058BB01C040
:1000700048BB9595879521503109A9F70895883097
:10008000910588F46830710570F4FC0183E0EE0F8F
:10009000FF1F8A95E1F7E60FF71FEE0FFF1FEA57E4
:1000A000FE4F5183408308958830910590F4683065
:1000B000710578F4FC0183E0EE0FFF1F8A95E1F7EC
:1000C000E60FF71FEE0FFF1FEA57FE4F8081918169
:1000D00008958FEF9FEF089546E851E020E030E06B
:1000E000FA01E20FF31F918380832E5F3F4F20318F
:1000F0003105B1F7405F5F4F22E04630520771F79C
:100100000895AF92BF92CF92DF92EF92FF920F933A
:100110001F93CF93DF936C0106E811E096E9E92E77
:1001200091E0F92EC0E0D0E0A12CB12CF801EA0D4D
:10013000FB1D0190F081E02D84E0EE0FFF1F8A95FA
:10014000E1F7EC0DFD1DEC0FFD1F8081918187DF34
:1001500080E1A80EB11C80E8A816B10439F72296F8
:10016000C031D10509F70E5F1F4FE016F106D1F639
:10017000DF91CF911F910F91FF90EF90DF90CF9083
:10018000BF90AF900895FB0125E0EE0FFF1F2A9569
:10019000E1F7EA59FF4F9C01205E3F4F4191519199
:1001A000DC014D935D93CD01A217B307B9F7089514
:1001B0000F931F93CF93DF93CDB7DEB7A0970FB602
:1001C000F894DEBF0FBECDBFAC01BE016F5F7F4FA5
:1001D0009E012F5D3F4FFB01DC010D911D910193AD
:1001E00011932E173F07C9F78096FA0120E030E0FF
:1001F000DB01A20FB31F0D90BC91A02DA193B19371
:10020000285F3F4F2032310599F7485F5F4F6E5F9F
:100210007F4F4817590749F7A0960FB6F894DEBFED
:100220000FBECDBFDF91CF911F910F9108954F92D7
:100230005F926F927F928F929F92AF92BF92CF9276
:10024000DF92EF92FF920F931F93CF93DF93EA0118
:100250002B0121E0421A51086C013A0184E0680E3A
:10026000711C812C912C7B01E3E0EE0EF11C5601F8
:100270008201F501819191915F0181309105C1F475
:10028000C130D10521F0C830D10521F422C0882425
:100290008394912C08301105D0F4C830D10540F476
:1002A000BE01C80101DF892B19F0C401019611C0FC
:1002B0000F5F1F4F0E151F05E1F62196F8E0CF0ED8
:1002C000D11CC615D70599F680E090E002C083E006
:1002D00090E0DF91CF911F910F91FF90EF90DF9011
:1002E000CF90BF90AF909F908F907F906F905F90D6
:1002F0004F9008956F927F928F929F92AF92BF928C
:10030000CF92DF92EF92FF920F931F93CF93DF93E1
:100310004A01390101975C01EB012197C12CD12CD5
:10032000750100E010E088E0E816F10490F4C830B0
:10033000D10578F4F801EC0DFD1DEE0FFF1FE80D5F
:10034000F91D80819181019721F4A301BE01C701AC
:1003500096DE8FEFE81AF80A0F5F1F4F0430110581
:1003600011F7219684E0C80ED11C80E1C816D10493
:10037000B9F6DF91CF911F910F91FF90EF90DF9031
:10038000CF90BF90AF909F908F907F906F90089587
:1003900085E087BB18BA0895FBDF80E090E09CDE23
:1003A00083E0C82ED12C9EEFA92EBB24BA94EE2454
:1003B000E394F12C80916400909165008130910567
:1003C00071F08230910519F00097C1F73EC080E0CE
:1003D00090E082DEF0926500E0926400EBCF6091E5
:1003E00082017091830186E092E0CDDE80918201EE
:1003F000909183010196863091052CF490938301AE
:100400008093820104C01092830110928201809136
:100410008401909185010196853091052CF490938B
:1004200085018093840104C0F0928501E0928401EB
:100430001092650010926400D0926300C092620036
:10044000B0926100A0926000B5CF609160007091A1
:10045000610020E030E046E052E08091620090913F
:10046000630048DF86B381FF04C086E092E0A0DE2F
:100470002EC0C0916200D091630083FF13C0009131
:10048000600010916100A801BE0186E092E0CFDE1D
:10049000019709F450C00F5F1F4F10936100009344
:1004A0006000EDCF409160005091610084FF02C078
:1004B000219703C085FF0BC02196BE0186E092E024
:1004C000B6DE892B21F4D0936300C09362000091C3
:1004D00060001091610090906200C0916300A801DB
:1004E000692D7C2F86E092E0A2DE909365008093D8
:1004F0006400892B31F40F5F1F4F1093610000934C
:1005000060002091840130918501609160007091BC
:10051000610046E052E0892D9C2FECDE86E291E0FE
:10052000F0DD2FEF81EE94E0215080409040E1F724
:1005300000C000003FCF9C2ECD2FA801692D7D2F3C
:1005400086E092E074DE9093650080936400D9CFDA
:04055000F894FFCF4D
:10055400FEFF030002000000000000000000010094
:100564000100010001000000000000000000000084
:100574000000000000000000000000000000010076
:100584000100010000000000000001000000000064
:100594000000000000000000000000000000000057
:1005A4000000010000000100010001000000000043
:1005B4000000000000000000000000000000000037
:1005C4000100010000000000010001000000000023
:1005D4000000000000000000000000000000000017
:1005E4000100010000000100010000000000000003
:1005F40000000000000000000000000000000100F6
:1006040001000000000000000100010000000000E3
:1006140000000000000000000000000000000000D6
:10062400000000000000FF00FF00FF00FF00FF00CB
:10063400FF00FF00FF00FF008100810081008100B6
:1006440081008100FF00FF00A5009300C900A50000
:100654009300C900FF00FF00AB00D500AB00D5003C
:10066400AB00D500FF0005000400030002000100F8
:02067400000084
:00000001FF
